{
  "contractName": "Admission",
  "abi": [
    {
      "constant": true,
      "inputs": [],
      "name": "documentCount",
      "outputs": [
        {
          "name": "",
          "type": "uint256"
        }
      ],
      "payable": false,
      "stateMutability": "view",
      "type": "function",
      "signature": "0xa5b16b2e"
    },
    {
      "constant": true,
      "inputs": [
        {
          "name": "",
          "type": "uint256"
        }
      ],
      "name": "documents",
      "outputs": [
        {
          "name": "docId",
          "type": "uint256"
        },
        {
          "name": "studentUid",
          "type": "string"
        },
        {
          "name": "docHash",
          "type": "string"
        },
        {
          "name": "docType",
          "type": "string"
        }
      ],
      "payable": false,
      "stateMutability": "view",
      "type": "function",
      "signature": "0xc2ed2b05"
    },
    {
      "inputs": [],
      "payable": false,
      "stateMutability": "nonpayable",
      "type": "constructor",
      "signature": "constructor"
    },
    {
      "constant": false,
      "inputs": [
        {
          "name": "_studentUid",
          "type": "string"
        },
        {
          "name": "_docHash",
          "type": "string"
        },
        {
          "name": "_docType",
          "type": "string"
        }
      ],
      "name": "createDocument",
      "outputs": [],
      "payable": false,
      "stateMutability": "nonpayable",
      "type": "function",
      "signature": "0x5ec43825"
    },
    {
      "constant": false,
      "inputs": [
        {
          "name": "_studentUid",
          "type": "string"
        }
      ],
      "name": "getStudentDocuments",
      "outputs": [
        {
          "name": "",
          "type": "uint256[]"
        },
        {
          "name": "",
          "type": "string[]"
        },
        {
          "name": "",
          "type": "string[]"
        },
        {
          "name": "",
          "type": "string[]"
        }
      ],
      "payable": false,
      "stateMutability": "nonpayable",
      "type": "function",
      "signature": "0x4ba3022f"
    }
  ],
  "bytecode": "0x60806040526000805534801561001457600080fd5b506100ce6040805190810160405280600a81526020017f32303138313430303336000000000000000000000000000000000000000000008152506040805190810160405280600681526020017f61626331323300000000000000000000000000000000000000000000000000008152506040805190810160405280600b81526020017f61616468617220636172640000000000000000000000000000000000000000008152506100d3640100000000026401000000009004565b610202565b60008054600190810180835560408051608081018252828152602080820189815282840189905260608301889052938652848152919094208451815591518051929361012793908501929190910190610167565b5060408201518051610143916002840191602090910190610167565b506060820151805161015f916003840191602090910190610167565b505050505050565b828054600181600116156101000203166002900490600052602060002090601f016020900481019282601f106101a857805160ff19168380011785556101d5565b828001600101855582156101d5579182015b828111156101d55782518255916020019190600101906101ba565b506101e19291506101e5565b5090565b6101ff91905b808211156101e157600081556001016101eb565b90565b610acf806102116000396000f3fe6080604052600436106100615763ffffffff7c01000000000000000000000000000000000000000000000000000000006000350416634ba3022f81146100665780635ec438251461009f578063a5b16b2e146100c1578063c2ed2b05146100e3575b600080fd5b34801561007257600080fd5b50610086610081366004610752565b610113565b6040516100969493929190610943565b60405180910390f35b3480156100ab57600080fd5b506100bf6100ba36600461078f565b6103ee565b005b3480156100cd57600080fd5b506100d6610482565b604051610096919061099a565b3480156100ef57600080fd5b506101036100fe366004610823565b610488565b60405161009694939291906109ae565b60408051600580825260c0820190925260609182918291829182916020820160a080388339505060408051600580825260c082019092529293506060929150602082015b606081526020019060019003908161015757505060408051600580825260c0820190925291925060609190602082015b606081526020019060019003908161018757505060408051600580825260c0820190925291925060609190602082015b60608152602001906001900390816101b75790505090506000806000548110156103e0578a805190602001206001600083815260200190815260200160002060010160405180828054600181600116156101000203166002900480156102545780601f10610232576101008083540402835291820191610254565b820191906000526020600020905b815481529060010190602001808311610240575b5050915050604051809103902014156103ce57600081815260016020818152604092839020820180548451600294821615610100026000190190911693909304601f81018390048302840183019094528383529192908301828280156102fb5780601f106102d0576101008083540402835291602001916102fb565b820191906000526020600020905b8154815290600101906020018083116102de57829003601f168201915b5050505050858381518110151561030e57fe5b602090810291909101810191909152600082815260018083526040918290206002908101805484519381161561010002600019011691909104601f810185900485028301850190935282825290929091908301828280156103b05780601f10610385576101008083540402835291602001916103b0565b820191906000526020600020905b81548152906001019060200180831161039357829003601f168201915b505050505084838151811015156103c357fe5b602090810290910101525b50939750919550935091506103e79050565b5050505050505b9193509193565b60008054600190810180835560408051608081018252828152602080820189815282840189905260608301889052938652848152919094208451815591518051929361044293908501929190910190610650565b506040820151805161045e916002840191602090910190610650565b506060820151805161047a916003840191602090910190610650565b505050505050565b60005481565b600160208181526000928352604092839020805481840180548651600296821615610100026000190190911695909504601f810185900485028601850190965285855290949193929091908301828280156105245780601f106104f957610100808354040283529160200191610524565b820191906000526020600020905b81548152906001019060200180831161050757829003601f168201915b50505060028085018054604080516020601f60001961010060018716150201909416959095049283018590048502810185019091528181529596959450909250908301828280156105b65780601f1061058b576101008083540402835291602001916105b6565b820191906000526020600020905b81548152906001019060200180831161059957829003601f168201915b5050505060038301805460408051602060026001851615610100026000190190941693909304601f81018490048402820184019092528181529495949350908301828280156106465780601f1061061b57610100808354040283529160200191610646565b820191906000526020600020905b81548152906001019060200180831161062957829003601f168201915b5050505050905084565b828054600181600116156101000203166002900490600052602060002090601f016020900481019282601f1061069157805160ff19168380011785556106be565b828001600101855582156106be579182015b828111156106be5782518255916020019190600101906106a3565b506106ca9291506106ce565b5090565b6106e891905b808211156106ca57600081556001016106d4565b90565b6000601f820183136106fc57600080fd5b813561070f61070a82610a1d565b6109f6565b9150808252602083016020830185838301111561072b57600080fd5b610736838284610a4f565b50505092915050565b600061074b82356106e8565b9392505050565b60006020828403121561076457600080fd5b813567ffffffffffffffff81111561077b57600080fd5b610787848285016106eb565b949350505050565b6000806000606084860312156107a457600080fd5b833567ffffffffffffffff8111156107bb57600080fd5b6107c7868287016106eb565b935050602084013567ffffffffffffffff8111156107e457600080fd5b6107f0868287016106eb565b925050604084013567ffffffffffffffff81111561080d57600080fd5b610819868287016106eb565b9150509250925092565b60006020828403121561083557600080fd5b6000610787848461073f565b600061084c82610a4b565b8084526020840193508360208202850161086585610a45565b60005b8481101561089c5783830388526108808383516108ff565b925061088b82610a45565b602098909801979150600101610868565b50909695505050505050565b60006108b382610a4b565b8084526020840193506108c583610a45565b60005b828110156108f5576108db868351610934565b6108e482610a45565b6020969096019591506001016108c8565b5093949350505050565b600061090a82610a4b565b80845261091e816020860160208601610a5b565b61092781610a8b565b9093016020019392505050565b61093d816106e8565b82525050565b6080808252810161095481876108a8565b905081810360208301526109688186610841565b9050818103604083015261097c8185610841565b905081810360608301526109908184610841565b9695505050505050565b602081016109a88284610934565b92915050565b608081016109bc8287610934565b81810360208301526109ce81866108ff565b905081810360408301526109e281856108ff565b9050818103606083015261099081846108ff565b60405181810167ffffffffffffffff81118282101715610a1557600080fd5b604052919050565b600067ffffffffffffffff821115610a3457600080fd5b506020601f91909101601f19160190565b60200190565b5190565b82818337506000910152565b60005b83811015610a76578181015183820152602001610a5e565b83811115610a85576000848401525b50505050565b601f01601f19169056fea265627a7a7230582048a32327e5ec2d7e46912ace4a70e5959efc23fb388be905d37e1b84b60c03e26c6578706572696d656e74616cf50037",
  "source": "pragma solidity ^0.5.0;\npragma experimental ABIEncoderV2;\n\ncontract Admission {\n  uint public documentCount = 0;\n\n  struct Document {\n    uint docId;\n    string studentUid;\n    string docHash;\n    string docType; \n  }\n\n  mapping(uint => Document) public documents;\n  // mapping(uint => Document) public studentDocuments;\n  constructor() public {\n    createDocument(\"2018140036\", \"abc123\", \"aadhar card\");\n  }\n\n  function createDocument(string memory _studentUid, string memory _docHash, string memory _docType) public {\n    documentCount++;\n    documents[documentCount] = Document(documentCount, _studentUid, _docHash, _docType);\n    // emit TaskCreated(documentCount, _content, false);\n  }\n  function getStudentDocuments(string memory _studentUid) public returns (uint[] memory, string[] memory, string[] memory, string[] memory){\n    uint[] memory docId = new uint[](5);\n    string[] memory studentUid = new string[](5);\n    string[] memory docHash = new string[](5);\n    string[] memory docType = new string[](5);\n\n    uint counter = 0; \n    for(uint i=0; i<documentCount; i++) {\n      if(keccak256(bytes(documents[i].studentUid)) == keccak256(bytes(_studentUid))) {\n        studentUid[counter] = documents[i].studentUid;\n        docHash[counter] = documents[i].docHash;\n      }\n      return (docId,studentUid,docHash,docType);\n    }\n  }\n\n\n  // function toggleCompleted(uint _id) public {\n  //   Document memory _task = documents[_id];\n  //   _task.completed = !_task.completed;\n  //   documents[_id] = _task;\n  //   emit TaskCompleted(_id, _task.completed);\n  // }\n\n}",
  "sourcePath": "/Users/sarthakmaniar/Desktop/Ethereum_Dapp/contracts/Educrypto.sol",
  "compiler": {
    "name": "solc",
    "version": "0.5.0+commit.1d4f565a.Emscripten.clang"
  },
  "schemaVersion": "3.0.2",
  "updatedAt": "2022-02-05T07:39:25.809Z",
  "devdoc": {
    "methods": {}
  },
  "userdoc": {
    "methods": {}
  }
}