{
  "contractName": "Admission",
  "abi": [
    {
      "inputs": [],
      "payable": false,
      "stateMutability": "nonpayable",
      "type": "constructor"
    },
    {
      "constant": true,
      "inputs": [],
      "name": "documentCount",
      "outputs": [
        {
          "internalType": "uint256",
          "name": "",
          "type": "uint256"
        }
      ],
      "payable": false,
      "stateMutability": "view",
      "type": "function"
    },
    {
      "constant": true,
      "inputs": [
        {
          "internalType": "uint256",
          "name": "",
          "type": "uint256"
        }
      ],
      "name": "documents",
      "outputs": [
        {
          "internalType": "uint256",
          "name": "docId",
          "type": "uint256"
        },
        {
          "internalType": "string",
          "name": "studentUid",
          "type": "string"
        },
        {
          "internalType": "string",
          "name": "docHash",
          "type": "string"
        },
        {
          "internalType": "string",
          "name": "docType",
          "type": "string"
        }
      ],
      "payable": false,
      "stateMutability": "view",
      "type": "function"
    },
    {
      "constant": false,
      "inputs": [
        {
          "internalType": "string",
          "name": "_studentUid",
          "type": "string"
        },
        {
          "internalType": "string",
          "name": "_docHash",
          "type": "string"
        },
        {
          "internalType": "string",
          "name": "_docType",
          "type": "string"
        }
      ],
      "name": "createDocument",
      "outputs": [],
      "payable": false,
      "stateMutability": "nonpayable",
      "type": "function"
    },
    {
      "constant": false,
      "inputs": [
        {
          "internalType": "string",
          "name": "_studentUid",
          "type": "string"
        }
      ],
      "name": "getStudentDocuments",
      "outputs": [
        {
          "internalType": "uint256[]",
          "name": "",
          "type": "uint256[]"
        },
        {
          "internalType": "string[]",
          "name": "",
          "type": "string[]"
        },
        {
          "internalType": "string[]",
          "name": "",
          "type": "string[]"
        },
        {
          "internalType": "string[]",
          "name": "",
          "type": "string[]"
        }
      ],
      "payable": false,
      "stateMutability": "nonpayable",
      "type": "function"
    }
  ],
  "bytecode": "0x60806040526000805534801561001457600080fd5b506100896040518060400160405280600a8152602001691918189c189a1818199b60b11b8152506040518060400160405280600681526020016561626331323360d01b8152506040518060400160405280600b81526020016a1858591a185c8818d85c9960aa1b81525061008e60201b60201c565b6101bd565b6000805460019081018083556040805160808101825282815260208082018981528284018990526060830188905293865284815291909420845181559151805192936100e293908501929190910190610122565b50604082015180516100fe916002840191602090910190610122565b506060820151805161011a916003840191602090910190610122565b505050505050565b828054600181600116156101000203166002900490600052602060002090601f016020900481019282601f1061016357805160ff1916838001178555610190565b82800160010185558215610190579182015b82811115610190578251825591602001919060010190610175565b5061019c9291506101a0565b5090565b6101ba91905b8082111561019c57600081556001016101a6565b90565b610b3b806101cc6000396000f3fe608060405234801561001057600080fd5b506004361061004c5760003560e01c80634ba3022f146100515780635ec438251461007d578063a5b16b2e14610092578063c2ed2b05146100a7575b600080fd5b61006461005f3660046106c4565b6100ca565b604051610074949392919061097b565b60405180910390f35b61009061008b366004610701565b610362565b005b61009a6103f6565b60405161007491906109d2565b6100ba6100b5366004610795565b6103fc565b60405161007494939291906109e0565b60408051600580825260c0820190925260609182918291829182916020820160a080388339505060408051600580825260c082019092529293506060929150602082015b606081526020019060019003908161010e57505060408051600580825260c0820190925291925060609190602082015b606081526020019060019003908161013e57505060408051600580825260c0820190925291925060609190602082015b606081526020019060019003908161016e579050509050600080600054811015610354578a80519060200120600160008381526020019081526020016000206001016040516101bd919061096f565b6040518091039020141561034257600081815260016020818152604092839020820180548451600294821615610100026000190190911693909304601f810183900483028401830190945283835291929083018282801561025f5780601f106102345761010080835404028352916020019161025f565b820191906000526020600020905b81548152906001019060200180831161024257829003601f168201915b505050505085838151811061027057fe5b6020026020010181905250600160008281526020019081526020016000206002018054600181600116156101000203166002900480601f0160208091040260200160405190810160405280929190818152602001828054600181600116156101000203166002900480156103255780601f106102fa57610100808354040283529160200191610325565b820191906000526020600020905b81548152906001019060200180831161030857829003601f168201915b505050505084838151811061033657fe5b60200260200101819052505b509397509195509350915061035b9050565b5050505050505b9193509193565b6000805460019081018083556040805160808101825282815260208082018981528284018990526060830188905293865284815291909420845181559151805192936103b6939085019291909101906105c4565b50604082015180516103d29160028401916020909101906105c4565b50606082015180516103ee9160038401916020909101906105c4565b505050505050565b60005481565b600160208181526000928352604092839020805481840180548651600296821615610100026000190190911695909504601f810185900485028601850190965285855290949193929091908301828280156104985780601f1061046d57610100808354040283529160200191610498565b820191906000526020600020905b81548152906001019060200180831161047b57829003601f168201915b50505060028085018054604080516020601f600019610100600187161502019094169590950492830185900485028101850190915281815295969594509092509083018282801561052a5780601f106104ff5761010080835404028352916020019161052a565b820191906000526020600020905b81548152906001019060200180831161050d57829003601f168201915b5050505060038301805460408051602060026001851615610100026000190190941693909304601f81018490048402820184019092528181529495949350908301828280156105ba5780601f1061058f576101008083540402835291602001916105ba565b820191906000526020600020905b81548152906001019060200180831161059d57829003601f168201915b5050505050905084565b828054600181600116156101000203166002900490600052602060002090601f016020900481019282601f1061060557805160ff1916838001178555610632565b82800160010185558215610632579182015b82811115610632578251825591602001919060010190610617565b5061063e929150610642565b5090565b61065c91905b8082111561063e5760008155600101610648565b90565b600082601f83011261067057600080fd5b813561068361067e82610a4f565b610a28565b9150808252602083016020830185838301111561069f57600080fd5b6106aa838284610a9b565b50505092915050565b80356106be81610ae1565b92915050565b6000602082840312156106d657600080fd5b813567ffffffffffffffff8111156106ed57600080fd5b6106f98482850161065f565b949350505050565b60008060006060848603121561071657600080fd5b833567ffffffffffffffff81111561072d57600080fd5b6107398682870161065f565b935050602084013567ffffffffffffffff81111561075657600080fd5b6107628682870161065f565b925050604084013567ffffffffffffffff81111561077f57600080fd5b61078b8682870161065f565b9150509250925092565b6000602082840312156107a757600080fd5b60006106f984846106b3565b60006107bf8383610928565b9392505050565b60006107d28383610960565b505060200190565b60006107e582610a89565b6107ef8185610a8d565b93508360208202850161080185610a77565b8060005b8581101561083b578484038952815161081e85826107b3565b945061082983610a77565b60209a909a0199925050600101610805565b5091979650505050505050565b600061085382610a89565b61085d8185610a8d565b935061086883610a77565b8060005b8381101561089657815161088088826107c6565b975061088b83610a77565b92505060010161086c565b509495945050505050565b6000815460018116600081146108be57600181146108e157610920565b607f60028304166108cf8187610a96565b60ff1984168152955085019250610920565b600282046108ef8187610a96565b95506108fa85610a7d565b60005b82811015610919578154888201526001909101906020016108fd565b5050850192505b505092915050565b600061093382610a89565b61093d8185610a8d565b935061094d818560208601610aa7565b61095681610ad7565b9093019392505050565b6109698161065c565b82525050565b60006107bf82846108a1565b6080808252810161098c8187610848565b905081810360208301526109a081866107da565b905081810360408301526109b481856107da565b905081810360608301526109c881846107da565b9695505050505050565b602081016106be8284610960565b608081016109ee8287610960565b8181036020830152610a008186610928565b90508181036040830152610a148185610928565b905081810360608301526109c88184610928565b60405181810167ffffffffffffffff81118282101715610a4757600080fd5b604052919050565b600067ffffffffffffffff821115610a6657600080fd5b506020601f91909101601f19160190565b60200190565b60009081526020902090565b5190565b90815260200190565b919050565b82818337506000910152565b60005b83811015610ac2578181015183820152602001610aaa565b83811115610ad1576000848401525b50505050565b601f01601f191690565b610aea8161065c565b8114610af557600080fd5b5056fea365627a7a723158205edf4224fc5a5f4422f5bb749a671b22ea96ca32fe694fcd74beb6652f6658ef6c6578706572696d656e74616cf564736f6c63430005100040",
  "source": "pragma solidity ^0.5.0;\r\npragma experimental ABIEncoderV2;\r\n\r\ncontract Admission {\r\n  uint public documentCount = 0;\r\n\r\n  struct Document {\r\n    uint docId;\r\n    string studentUid;\r\n    string docHash;\r\n    string docType; \r\n  }\r\n\r\n  mapping(uint => Document) public documents;\r\n\r\n  constructor() public {\r\n    createDocument(\"2018140036\", \"abc123\", \"aadhar card\");\r\n  }\r\n\r\n  function createDocument(string memory _studentUid, string memory _docHash, string memory _docType) public {\r\n    documentCount++;\r\n    documents[documentCount] = Document(documentCount, _studentUid, _docHash, _docType);\r\n    // emit TaskCreated(documentCount, _content, false);\r\n  }\r\n\r\n  function getStudentDocuments(string memory _studentUid) public returns (uint[] memory, string[] memory, string[] memory, string[] memory){\r\n    uint[] memory docId = new uint[](5);\r\n    string[] memory studentUid = new string[](5);\r\n    string[] memory docHash = new string[](5);\r\n    string[] memory docType = new string[](5);\r\n\r\n    uint counter = 0; \r\n    for(uint i=0; i<documentCount; i++) {\r\n      if(keccak256(bytes(documents[i].studentUid)) == keccak256(bytes(_studentUid))) {\r\n        studentUid[counter] = documents[i].studentUid;\r\n        docHash[counter] = documents[i].docHash;\r\n      }\r\n      return (docId,studentUid,docHash,docType);\r\n    }\r\n  }\r\n\r\n  // function toggleCompleted(uint _id) public {\r\n  //   Document memory _task = documents[_id];\r\n  //   _task.completed = !_task.completed;\r\n  //   documents[_id] = _task;\r\n  //   emit TaskCompleted(_id, _task.completed);\r\n  // }\r\n\r\n}",
  "sourcePath": "D:\\Users\\tanvi\\Eighth Semester\\Major Project\\Educrypto Frontend\\contracts\\Educrypto.sol",
  "compiler": {
    "name": "solc",
    "version": "0.5.16+commit.9c3226ce.Emscripten.clang"
  },
  "schemaVersion": "3.4.4",
  "updatedAt": "2022-02-05T07:58:21.796Z",
  "networkType": "ethereum",
  "devdoc": {
    "methods": {}
  },
  "userdoc": {
    "methods": {}
  }
}