{
  "contractName": "Admission",
  "abi": [
    {
      "inputs": [],
      "payable": false,
      "stateMutability": "nonpayable",
      "type": "constructor"
    },
    {
      "constant": true,
      "inputs": [],
      "name": "documentCount",
      "outputs": [
        {
          "internalType": "uint256",
          "name": "",
          "type": "uint256"
        }
      ],
      "payable": false,
      "stateMutability": "view",
      "type": "function"
    },
    {
      "constant": true,
      "inputs": [
        {
          "internalType": "uint256",
          "name": "",
          "type": "uint256"
        }
      ],
      "name": "documents",
      "outputs": [
        {
          "internalType": "uint256",
          "name": "docId",
          "type": "uint256"
        },
        {
          "internalType": "string",
          "name": "studentUid",
          "type": "string"
        },
        {
          "internalType": "string",
          "name": "docHash",
          "type": "string"
        },
        {
          "internalType": "string",
          "name": "docType",
          "type": "string"
        }
      ],
      "payable": false,
      "stateMutability": "view",
      "type": "function"
    },
    {
      "constant": false,
      "inputs": [
        {
          "internalType": "string",
          "name": "_studentUid",
          "type": "string"
        },
        {
          "internalType": "string",
          "name": "_docHash",
          "type": "string"
        },
        {
          "internalType": "string",
          "name": "_docType",
          "type": "string"
        }
      ],
      "name": "createDocument",
      "outputs": [],
      "payable": false,
      "stateMutability": "nonpayable",
      "type": "function"
    }
  ],
  "bytecode": "0x60806040526000805534801561001457600080fd5b506100896040518060400160405280600a8152602001691918189c189a1818199b60b11b8152506040518060400160405280600681526020016561626331323360d01b8152506040518060400160405280600b81526020016a1858591a185c8818d85c9960aa1b81525061008e60201b60201c565b6101bd565b6000805460019081018083556040805160808101825282815260208082018981528284018990526060830188905293865284815291909420845181559151805192936100e293908501929190910190610122565b50604082015180516100fe916002840191602090910190610122565b506060820151805161011a916003840191602090910190610122565b505050505050565b828054600181600116156101000203166002900490600052602060002090601f016020900481019282601f1061016357805160ff1916838001178555610190565b82800160010185558215610190579182015b82811115610190578251825591602001919060010190610175565b5061019c9291506101a0565b5090565b6101ba91905b8082111561019c57600081556001016101a6565b90565b61065b806101cc6000396000f3fe608060405234801561001057600080fd5b50600436106100415760003560e01c80635ec4382514610046578063a5b16b2e1461005b578063c2ed2b0514610079575b600080fd5b6100596100543660046103fe565b61009c565b005b610063610130565b60405161007091906104ff565b60405180910390f35b61008c610087366004610492565b610136565b604051610070949392919061050d565b6000805460019081018083556040805160808101825282815260208082018981528284018990526060830188905293865284815291909420845181559151805192936100f0939085019291909101906102fe565b506040820151805161010c9160028401916020909101906102fe565b50606082015180516101289160038401916020909101906102fe565b505050505050565b60005481565b600160208181526000928352604092839020805481840180548651600296821615610100026000190190911695909504601f810185900485028601850190965285855290949193929091908301828280156101d25780601f106101a7576101008083540402835291602001916101d2565b820191906000526020600020905b8154815290600101906020018083116101b557829003601f168201915b50505060028085018054604080516020601f60001961010060018716150201909416959095049283018590048502810185019091528181529596959450909250908301828280156102645780601f1061023957610100808354040283529160200191610264565b820191906000526020600020905b81548152906001019060200180831161024757829003601f168201915b5050505060038301805460408051602060026001851615610100026000190190941693909304601f81018490048402820184019092528181529495949350908301828280156102f45780601f106102c9576101008083540402835291602001916102f4565b820191906000526020600020905b8154815290600101906020018083116102d757829003601f168201915b5050505050905084565b828054600181600116156101000203166002900490600052602060002090601f016020900481019282601f1061033f57805160ff191683800117855561036c565b8280016001018555821561036c579182015b8281111561036c578251825591602001919060010190610351565b5061037892915061037c565b5090565b61039691905b808211156103785760008155600101610382565b90565b600082601f8301126103aa57600080fd5b81356103bd6103b882610586565b61055f565b915080825260208301602083018583830111156103d957600080fd5b6103e48382846105bb565b50505092915050565b80356103f881610601565b92915050565b60008060006060848603121561041357600080fd5b833567ffffffffffffffff81111561042a57600080fd5b61043686828701610399565b935050602084013567ffffffffffffffff81111561045357600080fd5b61045f86828701610399565b925050604084013567ffffffffffffffff81111561047c57600080fd5b61048886828701610399565b9150509250925092565b6000602082840312156104a457600080fd5b60006104b084846103ed565b949350505050565b60006104c3826105ae565b6104cd81856105b2565b93506104dd8185602086016105c7565b6104e6816105f7565b9093019392505050565b6104f981610396565b82525050565b602081016103f882846104f0565b6080810161051b82876104f0565b818103602083015261052d81866104b8565b9050818103604083015261054181856104b8565b9050818103606083015261055581846104b8565b9695505050505050565b60405181810167ffffffffffffffff8111828210171561057e57600080fd5b604052919050565b600067ffffffffffffffff82111561059d57600080fd5b506020601f91909101601f19160190565b5190565b90815260200190565b82818337506000910152565b60005b838110156105e25781810151838201526020016105ca565b838111156105f1576000848401525b50505050565b601f01601f191690565b61060a81610396565b811461061557600080fd5b5056fea365627a7a72315820b2d9b3ccd70e07fa6c06a5b9626c501588a5c97345e3484dcc41b81d225e1f766c6578706572696d656e74616cf564736f6c63430005100040",
  "source": "pragma solidity ^0.5.0;\r\npragma experimental ABIEncoderV2;\r\n\r\ncontract Admission {\r\n  uint public documentCount = 0;\r\n\r\n  struct Document {\r\n    uint docId;\r\n    string studentUid;\r\n    string docHash;\r\n    string docType; \r\n  }\r\n\r\n  mapping(uint => Document) public documents;\r\n  // mapping(uint => Document) public studentDocuments;\r\n  constructor() public {\r\n    createDocument(\"2018140036\", \"abc123\", \"aadhar card\");\r\n  }\r\n\r\n  function createDocument(string memory _studentUid, string memory _docHash, string memory _docType) public {\r\n    documentCount++;\r\n    documents[documentCount] = Document(documentCount, _studentUid, _docHash, _docType);\r\n    // emit TaskCreated(documentCount, _content, false);\r\n  }\r\n}\r\n\r\n\r\ncontract Exam {\r\n  uint public questionPaperCount = 0;\r\n  uint public answerPaperCount = 0;\r\n\r\n\r\n  struct QuestionPaper {\r\n    uint qpId;\r\n    string fid;\r\n    string testName;\r\n    string qpHash;\r\n    string branch;\r\n    string subject;\r\n  }\r\n\r\n  struct AnswerPaper {\r\n    uint apId;\r\n    string studentUid;\r\n    string testName;\r\n    string apHash;\r\n    string branch;\r\n    string subject;\r\n  }\r\n\r\n\r\n  mapping(uint => QuestionPaper) public questionpapers;\r\n  mapping(uint => AnswerPaper) public answerpapers;\r\n\r\n \r\n\r\n  function createQuestionPaper(string memory _fid, string memory _testName, string memory _qpHash, string memory _branch, string memory _subject) public {\r\n    questionPaperCount++;\r\n    questionpapers[questionPaperCount] = QuestionPaper(questionPaperCount, _fid, _testName, _qpHash, _branch,_subject);\r\n  }\r\n\r\n  \r\n  function createAnswerPaper(string memory _studentUid, string memory _testName, string memory _apHash, string memory _branch, string memory _subject) public {\r\n    answerPaperCount++;\r\n    answerpapers[answerPaperCount] = AnswerPaper(answerPaperCount, _studentUid, _testName, _apHash, _branch,_subject);\r\n  }\r\n}",
  "sourcePath": "D:\\Users\\tanvi\\Eighth Semester\\Major Project\\Educrypto Frontend\\contracts\\Educrypto.sol",
  "compiler": {
    "name": "solc",
    "version": "0.5.16+commit.9c3226ce.Emscripten.clang"
  },
  "schemaVersion": "3.4.4",
  "updatedAt": "2022-03-07T04:42:12.234Z",
  "devdoc": {
    "methods": {}
  },
  "userdoc": {
    "methods": {}
  }
}