{
  "contractName": "Exam",
  "abi": [
    {
      "constant": true,
      "inputs": [],
      "name": "answerPaperCount",
      "outputs": [
        {
          "internalType": "uint256",
          "name": "",
          "type": "uint256"
        }
      ],
      "payable": false,
      "stateMutability": "view",
      "type": "function"
    },
    {
      "constant": true,
      "inputs": [
        {
          "internalType": "uint256",
          "name": "",
          "type": "uint256"
        }
      ],
      "name": "answerpapers",
      "outputs": [
        {
          "internalType": "uint256",
          "name": "apId",
          "type": "uint256"
        },
        {
          "internalType": "string",
          "name": "studentUid",
          "type": "string"
        },
        {
          "internalType": "string",
          "name": "testName",
          "type": "string"
        },
        {
          "internalType": "string",
          "name": "apHash",
          "type": "string"
        },
        {
          "internalType": "string",
          "name": "branch",
          "type": "string"
        },
        {
          "internalType": "string",
          "name": "subject",
          "type": "string"
        }
      ],
      "payable": false,
      "stateMutability": "view",
      "type": "function"
    },
    {
      "constant": true,
      "inputs": [
        {
          "internalType": "uint256",
          "name": "",
          "type": "uint256"
        }
      ],
      "name": "facultynotes",
      "outputs": [
        {
          "internalType": "uint256",
          "name": "notesId",
          "type": "uint256"
        },
        {
          "internalType": "string",
          "name": "fid",
          "type": "string"
        },
        {
          "internalType": "string",
          "name": "notesHash",
          "type": "string"
        },
        {
          "internalType": "string",
          "name": "notesName",
          "type": "string"
        },
        {
          "internalType": "string",
          "name": "branch",
          "type": "string"
        },
        {
          "internalType": "string",
          "name": "subject",
          "type": "string"
        }
      ],
      "payable": false,
      "stateMutability": "view",
      "type": "function"
    },
    {
      "constant": true,
      "inputs": [
        {
          "internalType": "uint256",
          "name": "",
          "type": "uint256"
        }
      ],
      "name": "marksreports",
      "outputs": [
        {
          "internalType": "uint256",
          "name": "reportId",
          "type": "uint256"
        },
        {
          "internalType": "string",
          "name": "reportHash",
          "type": "string"
        },
        {
          "internalType": "string",
          "name": "testName",
          "type": "string"
        },
        {
          "internalType": "string",
          "name": "branch",
          "type": "string"
        },
        {
          "internalType": "string",
          "name": "subject",
          "type": "string"
        }
      ],
      "payable": false,
      "stateMutability": "view",
      "type": "function"
    },
    {
      "constant": true,
      "inputs": [],
      "name": "notesCount",
      "outputs": [
        {
          "internalType": "uint256",
          "name": "",
          "type": "uint256"
        }
      ],
      "payable": false,
      "stateMutability": "view",
      "type": "function"
    },
    {
      "constant": true,
      "inputs": [],
      "name": "questionPaperCount",
      "outputs": [
        {
          "internalType": "uint256",
          "name": "",
          "type": "uint256"
        }
      ],
      "payable": false,
      "stateMutability": "view",
      "type": "function"
    },
    {
      "constant": true,
      "inputs": [
        {
          "internalType": "uint256",
          "name": "",
          "type": "uint256"
        }
      ],
      "name": "questionpapers",
      "outputs": [
        {
          "internalType": "uint256",
          "name": "qpId",
          "type": "uint256"
        },
        {
          "internalType": "string",
          "name": "fid",
          "type": "string"
        },
        {
          "internalType": "string",
          "name": "testName",
          "type": "string"
        },
        {
          "internalType": "string",
          "name": "qpHash",
          "type": "string"
        },
        {
          "internalType": "string",
          "name": "branch",
          "type": "string"
        },
        {
          "internalType": "string",
          "name": "subject",
          "type": "string"
        }
      ],
      "payable": false,
      "stateMutability": "view",
      "type": "function"
    },
    {
      "constant": true,
      "inputs": [],
      "name": "reportCount",
      "outputs": [
        {
          "internalType": "uint256",
          "name": "",
          "type": "uint256"
        }
      ],
      "payable": false,
      "stateMutability": "view",
      "type": "function"
    },
    {
      "constant": false,
      "inputs": [
        {
          "internalType": "string",
          "name": "_fid",
          "type": "string"
        },
        {
          "internalType": "string",
          "name": "_testName",
          "type": "string"
        },
        {
          "internalType": "string",
          "name": "_qpHash",
          "type": "string"
        },
        {
          "internalType": "string",
          "name": "_branch",
          "type": "string"
        },
        {
          "internalType": "string",
          "name": "_subject",
          "type": "string"
        }
      ],
      "name": "createQuestionPaper",
      "outputs": [],
      "payable": false,
      "stateMutability": "nonpayable",
      "type": "function"
    },
    {
      "constant": false,
      "inputs": [
        {
          "internalType": "string",
          "name": "_studentUid",
          "type": "string"
        },
        {
          "internalType": "string",
          "name": "_testName",
          "type": "string"
        },
        {
          "internalType": "string",
          "name": "_apHash",
          "type": "string"
        },
        {
          "internalType": "string",
          "name": "_branch",
          "type": "string"
        },
        {
          "internalType": "string",
          "name": "_subject",
          "type": "string"
        }
      ],
      "name": "createAnswerPaper",
      "outputs": [],
      "payable": false,
      "stateMutability": "nonpayable",
      "type": "function"
    },
    {
      "constant": false,
      "inputs": [
        {
          "internalType": "string",
          "name": "_reportHash",
          "type": "string"
        },
        {
          "internalType": "string",
          "name": "_testName",
          "type": "string"
        },
        {
          "internalType": "string",
          "name": "_branch",
          "type": "string"
        },
        {
          "internalType": "string",
          "name": "_subject",
          "type": "string"
        }
      ],
      "name": "createMarksReport",
      "outputs": [],
      "payable": false,
      "stateMutability": "nonpayable",
      "type": "function"
    },
    {
      "constant": false,
      "inputs": [
        {
          "internalType": "string",
          "name": "_fid",
          "type": "string"
        },
        {
          "internalType": "string",
          "name": "_notesHash",
          "type": "string"
        },
        {
          "internalType": "string",
          "name": "_notesName",
          "type": "string"
        },
        {
          "internalType": "string",
          "name": "_branch",
          "type": "string"
        },
        {
          "internalType": "string",
          "name": "_subject",
          "type": "string"
        }
      ],
      "name": "createFacultyNotes",
      "outputs": [],
      "payable": false,
      "stateMutability": "nonpayable",
      "type": "function"
    }
  ],
  "bytecode": "0x60806040526000805560006001556000600255600060035534801561002357600080fd5b50610f50806100336000396000f3fe608060405234801561001057600080fd5b50600436106100b45760003560e01c8063854454491161007157806385445449146101505780638b8fcdbc146101585780639273a2d81461016b5780639d23572c1461017e578063b6f28fc014610191578063fa02e37514610199576100b4565b806305422b35146100b9578063185c6f84146100ce578063248331a7146100ec57806337e1256a14610111578063618bc90214610119578063675f18451461012c575b600080fd5b6100cc6100c7366004610c0a565b6101ac565b005b6100d6610287565b6040516100e39190610d63565b60405180910390f35b6100ff6100fa366004610cf6565b61028d565b6040516100e396959493929190610dd8565b6100d6610576565b6100ff610127366004610cf6565b61057c565b61013f61013a366004610cf6565b6105ee565b6040516100e3959493929190610d71565b6100d6610847565b6100cc610166366004610c0a565b61084d565b6100cc610179366004610c0a565b6108b3565b6100cc61018c366004610b4a565b610916565b6100d66109d2565b6100ff6101a7366004610cf6565b6109d8565b6001805481018082556040805160c08101825282815260208082018a81528284018a9052606083018990526080830188905260a083018790526000948552600582529290932081518155915180519194929361020d93850192910190610a4a565b5060408201518051610229916002840191602090910190610a4a565b5060608201518051610245916003840191602090910190610a4a565b5060808201518051610261916004840191602090910190610a4a565b5060a0820151805161027d916005840191602090910190610a4a565b5050505050505050565b60025481565b6004602090815260009182526040918290208054600180830180548651600293821615610100026000190190911692909204601f81018690048602830186019096528582529194929390929083018282801561032a5780601f106102ff5761010080835404028352916020019161032a565b820191906000526020600020905b81548152906001019060200180831161030d57829003601f168201915b50505060028085018054604080516020601f60001961010060018716150201909416959095049283018590048502810185019091528181529596959450909250908301828280156103bc5780601f10610391576101008083540402835291602001916103bc565b820191906000526020600020905b81548152906001019060200180831161039f57829003601f168201915b5050505060038301805460408051602060026001851615610100026000190190941693909304601f810184900484028201840190925281815294959493509083018282801561044c5780601f106104215761010080835404028352916020019161044c565b820191906000526020600020905b81548152906001019060200180831161042f57829003601f168201915b5050505060048301805460408051602060026001851615610100026000190190941693909304601f81018490048402820184019092528181529495949350908301828280156104dc5780601f106104b1576101008083540402835291602001916104dc565b820191906000526020600020905b8154815290600101906020018083116104bf57829003601f168201915b5050505060058301805460408051602060026001851615610100026000190190941693909304601f810184900484028201840190925281815294959493509083018282801561056c5780601f106105415761010080835404028352916020019161056c565b820191906000526020600020905b81548152906001019060200180831161054f57829003601f168201915b5050505050905086565b60015481565b6005602090815260009182526040918290208054600180830180548651600293821615610100026000190190911692909204601f81018690048602830186019096528582529194929390929083018282801561032a5780601f106102ff5761010080835404028352916020019161032a565b6006602090815260009182526040918290208054600180830180548651600293821615610100026000190190911692909204601f81018690048602830186019096528582529194929390929083018282801561068b5780601f106106605761010080835404028352916020019161068b565b820191906000526020600020905b81548152906001019060200180831161066e57829003601f168201915b50505060028085018054604080516020601f600019610100600187161502019094169590950492830185900485028101850190915281815295969594509092509083018282801561071d5780601f106106f25761010080835404028352916020019161071d565b820191906000526020600020905b81548152906001019060200180831161070057829003601f168201915b5050505060038301805460408051602060026001851615610100026000190190941693909304601f81018490048402820184019092528181529495949350908301828280156107ad5780601f10610782576101008083540402835291602001916107ad565b820191906000526020600020905b81548152906001019060200180831161079057829003601f168201915b5050505060048301805460408051602060026001851615610100026000190190941693909304601f810184900484028201840190925281815294959493509083018282801561083d5780601f106108125761010080835404028352916020019161083d565b820191906000526020600020905b81548152906001019060200180831161082057829003601f168201915b5050505050905085565b60035481565b600380546001908101918290556040805160c08101825283815260208082018a81528284018a9052606083018990526080830188905260a083018790526000958652600782529290942081518155915180519194929361020d9390850192910190610a4a565b6000805460019081018083556040805160c08101825282815260208082018b81528284018b9052606083018a90526080830189905260a0830188905293865260048152919094208451815591518051929361020d93908501929190910190610a4a565b600280546001908101918290556040805160a08101825283815260208082018981528284018990526060830188905260808301879052600095865260068252929094208151815591518051919492936109759390850192910190610a4a565b5060408201518051610991916002840191602090910190610a4a565b50606082015180516109ad916003840191602090910190610a4a565b50608082015180516109c9916004840191602090910190610a4a565b50505050505050565b60005481565b6007602090815260009182526040918290208054600180830180548651600293821615610100026000190190911692909204601f81018690048602830186019096528582529194929390929083018282801561032a5780601f106102ff5761010080835404028352916020019161032a565b828054600181600116156101000203166002900490600052602060002090601f016020900481019282601f10610a8b57805160ff1916838001178555610ab8565b82800160010185558215610ab8579182015b82811115610ab8578251825591602001919060010190610a9d565b50610ac4929150610ac8565b5090565b610ae291905b80821115610ac45760008155600101610ace565b90565b600082601f830112610af657600080fd5b8135610b09610b0482610e7b565b610e54565b91508082526020830160208301858383011115610b2557600080fd5b610b30838284610eb0565b50505092915050565b8035610b4481610ef6565b92915050565b60008060008060808587031215610b6057600080fd5b843567ffffffffffffffff811115610b7757600080fd5b610b8387828801610ae5565b945050602085013567ffffffffffffffff811115610ba057600080fd5b610bac87828801610ae5565b935050604085013567ffffffffffffffff811115610bc957600080fd5b610bd587828801610ae5565b925050606085013567ffffffffffffffff811115610bf257600080fd5b610bfe87828801610ae5565b91505092959194509250565b600080600080600060a08688031215610c2257600080fd5b853567ffffffffffffffff811115610c3957600080fd5b610c4588828901610ae5565b955050602086013567ffffffffffffffff811115610c6257600080fd5b610c6e88828901610ae5565b945050604086013567ffffffffffffffff811115610c8b57600080fd5b610c9788828901610ae5565b935050606086013567ffffffffffffffff811115610cb457600080fd5b610cc088828901610ae5565b925050608086013567ffffffffffffffff811115610cdd57600080fd5b610ce988828901610ae5565b9150509295509295909350565b600060208284031215610d0857600080fd5b6000610d148484610b39565b949350505050565b6000610d2782610ea3565b610d318185610ea7565b9350610d41818560208601610ebc565b610d4a81610eec565b9093019392505050565b610d5d81610ae2565b82525050565b60208101610b448284610d54565b60a08101610d7f8288610d54565b8181036020830152610d918187610d1c565b90508181036040830152610da58186610d1c565b90508181036060830152610db98185610d1c565b90508181036080830152610dcd8184610d1c565b979650505050505050565b60c08101610de68289610d54565b8181036020830152610df88188610d1c565b90508181036040830152610e0c8187610d1c565b90508181036060830152610e208186610d1c565b90508181036080830152610e348185610d1c565b905081810360a0830152610e488184610d1c565b98975050505050505050565b60405181810167ffffffffffffffff81118282101715610e7357600080fd5b604052919050565b600067ffffffffffffffff821115610e9257600080fd5b506020601f91909101601f19160190565b5190565b90815260200190565b82818337506000910152565b60005b83811015610ed7578181015183820152602001610ebf565b83811115610ee6576000848401525b50505050565b601f01601f191690565b610eff81610ae2565b8114610f0a57600080fd5b5056fea365627a7a72315820e71f57042c83e6694059748ee9453fd6788dadd3533beb9245a8c42e2910fad46c6578706572696d656e74616cf564736f6c63430005100040",
  "source": "pragma solidity ^0.5.0;\r\npragma experimental ABIEncoderV2;\r\n\r\ncontract Admission {\r\n  uint public documentCount = 0;\r\n\r\n  struct Document {\r\n    uint docId;\r\n    string studentUid;\r\n    string docHash;\r\n    string docType; \r\n  }\r\n  \r\n  mapping(uint => Document) public documents;\r\n  function createDocument(string memory _studentUid, string memory _docHash, \r\n  string memory _docType) public {\r\n    documentCount++;\r\n    documents[documentCount] = Document(documentCount, _studentUid, _docHash, _docType);\r\n  }\r\n\r\n}\r\n\r\n\r\ncontract Exam {\r\n  uint public questionPaperCount = 0;\r\n  uint public answerPaperCount = 0;\r\n  uint public reportCount=0;\r\n  uint public notesCount=0;\r\n\r\n\r\n  struct QuestionPaper {\r\n    uint qpId;\r\n    string fid;\r\n    string testName;\r\n    string qpHash;\r\n    string branch;\r\n    string subject;\r\n  }\r\n\r\n  struct AnswerPaper {\r\n    uint apId;\r\n    string studentUid;\r\n    string testName;\r\n    string apHash;\r\n    string branch;\r\n    string subject;\r\n  }\r\n\r\n   struct MarksReport {\r\n    uint reportId;\r\n    string reportHash;\r\n    string testName;\r\n    string branch;\r\n    string subject;\r\n  }\r\n\r\n   struct FacultyNotes {\r\n    uint notesId;\r\n    string fid;\r\n    string notesHash;\r\n    string notesName;\r\n    string branch;\r\n    string subject;\r\n  }\r\n\r\n\r\n  mapping(uint => QuestionPaper) public questionpapers;\r\n  mapping(uint => AnswerPaper) public answerpapers;\r\n  mapping(uint => MarksReport) public marksreports;\r\n  mapping(uint => FacultyNotes) public facultynotes;\r\n\r\n  function createQuestionPaper(string memory _fid, string memory _testName, \r\n  string memory _qpHash, string memory _branch, string memory _subject) public {\r\n    questionPaperCount++;\r\n    questionpapers[questionPaperCount] = QuestionPaper(questionPaperCount, _fid,\r\n     _testName, _qpHash, _branch,_subject);\r\n  }\r\n\r\n  \r\n  function createAnswerPaper(string memory _studentUid, string memory _testName, \r\n  string memory _apHash, string memory _branch, string memory _subject) public {\r\n    answerPaperCount++;\r\n    answerpapers[answerPaperCount] = AnswerPaper(answerPaperCount, _studentUid, \r\n    _testName, _apHash, _branch,_subject);\r\n  }\r\n\r\n  function createMarksReport(string memory _reportHash, string memory _testName, string memory _branch, string memory _subject) public {\r\n    reportCount++;\r\n    marksreports[reportCount] = MarksReport(reportCount, _reportHash, _testName, _branch, _subject);\r\n  }\r\n\r\n  function createFacultyNotes(string memory _fid, string memory _notesHash, string memory _notesName, string memory _branch, string memory _subject) public {\r\n    notesCount++;\r\n    facultynotes[notesCount] = FacultyNotes(notesCount,_fid, _notesHash, _notesName, _branch, _subject);\r\n  }\r\n}",
  "sourcePath": "D:\\Users\\tanvi\\Eighth Semester\\Major Project\\Educrypto Frontend\\contracts\\Educrypto.sol",
  "compiler": {
    "name": "solc",
    "version": "0.5.16+commit.9c3226ce.Emscripten.clang"
  },
  "schemaVersion": "3.4.4",
  "updatedAt": "2022-05-16T19:28:01.555Z",
  "networkType": "ethereum",
  "devdoc": {
    "methods": {}
  },
  "userdoc": {
    "methods": {}
  }
}