{
  "contractName": "Exam",
  "abi": [
    {
      "constant": true,
      "inputs": [],
      "name": "answerPaperCount",
      "outputs": [
        {
          "internalType": "uint256",
          "name": "",
          "type": "uint256"
        }
      ],
      "payable": false,
      "stateMutability": "view",
      "type": "function"
    },
    {
      "constant": true,
      "inputs": [
        {
          "internalType": "uint256",
          "name": "",
          "type": "uint256"
        }
      ],
      "name": "answerpapers",
      "outputs": [
        {
          "internalType": "uint256",
          "name": "apId",
          "type": "uint256"
        },
        {
          "internalType": "string",
          "name": "studentUid",
          "type": "string"
        },
        {
          "internalType": "string",
          "name": "testName",
          "type": "string"
        },
        {
          "internalType": "string",
          "name": "apHash",
          "type": "string"
        },
        {
          "internalType": "string",
          "name": "branch",
          "type": "string"
        },
        {
          "internalType": "string",
          "name": "subject",
          "type": "string"
        }
      ],
      "payable": false,
      "stateMutability": "view",
      "type": "function"
    },
    {
      "constant": true,
      "inputs": [],
      "name": "questionPaperCount",
      "outputs": [
        {
          "internalType": "uint256",
          "name": "",
          "type": "uint256"
        }
      ],
      "payable": false,
      "stateMutability": "view",
      "type": "function"
    },
    {
      "constant": true,
      "inputs": [
        {
          "internalType": "uint256",
          "name": "",
          "type": "uint256"
        }
      ],
      "name": "questionpapers",
      "outputs": [
        {
          "internalType": "uint256",
          "name": "qpId",
          "type": "uint256"
        },
        {
          "internalType": "string",
          "name": "fid",
          "type": "string"
        },
        {
          "internalType": "string",
          "name": "testName",
          "type": "string"
        },
        {
          "internalType": "string",
          "name": "qpHash",
          "type": "string"
        },
        {
          "internalType": "string",
          "name": "branch",
          "type": "string"
        },
        {
          "internalType": "string",
          "name": "subject",
          "type": "string"
        }
      ],
      "payable": false,
      "stateMutability": "view",
      "type": "function"
    },
    {
      "constant": false,
      "inputs": [
        {
          "internalType": "string",
          "name": "_fid",
          "type": "string"
        },
        {
          "internalType": "string",
          "name": "_testName",
          "type": "string"
        },
        {
          "internalType": "string",
          "name": "_qpHash",
          "type": "string"
        },
        {
          "internalType": "string",
          "name": "_branch",
          "type": "string"
        },
        {
          "internalType": "string",
          "name": "_subject",
          "type": "string"
        }
      ],
      "name": "createQuestionPaper",
      "outputs": [],
      "payable": false,
      "stateMutability": "nonpayable",
      "type": "function"
    },
    {
      "constant": false,
      "inputs": [
        {
          "internalType": "string",
          "name": "_studentUid",
          "type": "string"
        },
        {
          "internalType": "string",
          "name": "_testName",
          "type": "string"
        },
        {
          "internalType": "string",
          "name": "_apHash",
          "type": "string"
        },
        {
          "internalType": "string",
          "name": "_branch",
          "type": "string"
        },
        {
          "internalType": "string",
          "name": "_subject",
          "type": "string"
        }
      ],
      "name": "createAnswerPaper",
      "outputs": [],
      "payable": false,
      "stateMutability": "nonpayable",
      "type": "function"
    }
  ],
  "bytecode": "0x608060405260008055600060015534801561001957600080fd5b5061096f806100296000396000f3fe608060405234801561001057600080fd5b50600436106100625760003560e01c806305422b3514610067578063248331a71461007c57806337e1256a146100aa578063618bc902146100bf5780639273a2d8146100d2578063b6f28fc0146100e5575b600080fd5b61007a610075366004610690565b6100ed565b005b61008f61008a36600461077c565b6101c8565b6040516100a1969594939291906107f7565b60405180910390f35b6100b26104af565b6040516100a191906107e9565b61008f6100cd36600461077c565b6104b5565b61007a6100e0366004610690565b610527565b6100b261058a565b6001805481018082556040805160c08101825282815260208082018a81528284018a9052606083018990526080830188905260a083018790526000948552600382529290932081518155915180519194929361014e93850192910190610590565b506040820151805161016a916002840191602090910190610590565b5060608201518051610186916003840191602090910190610590565b50608082015180516101a2916004840191602090910190610590565b5060a082015180516101be916005840191602090910190610590565b5050505050505050565b60026020818152600092835260409283902080546001808301805487519281161561010002600019011695909504601f81018590048502820185019096528581529094919390929091908301828280156102635780601f1061023857610100808354040283529160200191610263565b820191906000526020600020905b81548152906001019060200180831161024657829003601f168201915b50505060028085018054604080516020601f60001961010060018716150201909416959095049283018590048502810185019091528181529596959450909250908301828280156102f55780601f106102ca576101008083540402835291602001916102f5565b820191906000526020600020905b8154815290600101906020018083116102d857829003601f168201915b5050505060038301805460408051602060026001851615610100026000190190941693909304601f81018490048402820184019092528181529495949350908301828280156103855780601f1061035a57610100808354040283529160200191610385565b820191906000526020600020905b81548152906001019060200180831161036857829003601f168201915b5050505060048301805460408051602060026001851615610100026000190190941693909304601f81018490048402820184019092528181529495949350908301828280156104155780601f106103ea57610100808354040283529160200191610415565b820191906000526020600020905b8154815290600101906020018083116103f857829003601f168201915b5050505060058301805460408051602060026001851615610100026000190190941693909304601f81018490048402820184019092528181529495949350908301828280156104a55780601f1061047a576101008083540402835291602001916104a5565b820191906000526020600020905b81548152906001019060200180831161048857829003601f168201915b5050505050905086565b60015481565b6003602090815260009182526040918290208054600180830180548651600293821615610100026000190190911692909204601f8101869004860283018601909652858252919492939092908301828280156102635780601f1061023857610100808354040283529160200191610263565b6000805460019081018083556040805160c08101825282815260208082018b81528284018b9052606083018a90526080830189905260a0830188905293865260028152919094208451815591518051929361014e93908501929190910190610590565b60005481565b828054600181600116156101000203166002900490600052602060002090601f016020900481019282601f106105d157805160ff19168380011785556105fe565b828001600101855582156105fe579182015b828111156105fe5782518255916020019190600101906105e3565b5061060a92915061060e565b5090565b61062891905b8082111561060a5760008155600101610614565b90565b600082601f83011261063c57600080fd5b813561064f61064a8261089a565b610873565b9150808252602083016020830185838301111561066b57600080fd5b6106768382846108cf565b50505092915050565b803561068a81610915565b92915050565b600080600080600060a086880312156106a857600080fd5b853567ffffffffffffffff8111156106bf57600080fd5b6106cb8882890161062b565b955050602086013567ffffffffffffffff8111156106e857600080fd5b6106f48882890161062b565b945050604086013567ffffffffffffffff81111561071157600080fd5b61071d8882890161062b565b935050606086013567ffffffffffffffff81111561073a57600080fd5b6107468882890161062b565b925050608086013567ffffffffffffffff81111561076357600080fd5b61076f8882890161062b565b9150509295509295909350565b60006020828403121561078e57600080fd5b600061079a848461067f565b949350505050565b60006107ad826108c2565b6107b781856108c6565b93506107c78185602086016108db565b6107d08161090b565b9093019392505050565b6107e381610628565b82525050565b6020810161068a82846107da565b60c0810161080582896107da565b818103602083015261081781886107a2565b9050818103604083015261082b81876107a2565b9050818103606083015261083f81866107a2565b9050818103608083015261085381856107a2565b905081810360a083015261086781846107a2565b98975050505050505050565b60405181810167ffffffffffffffff8111828210171561089257600080fd5b604052919050565b600067ffffffffffffffff8211156108b157600080fd5b506020601f91909101601f19160190565b5190565b90815260200190565b82818337506000910152565b60005b838110156108f65781810151838201526020016108de565b83811115610905576000848401525b50505050565b601f01601f191690565b61091e81610628565b811461092957600080fd5b5056fea365627a7a72315820800b2a31748b467fbdb6f14292abbfdd0d0dc5d3c9735aa13d7e7ed44a3bb76c6c6578706572696d656e74616cf564736f6c63430005100040",
  "source": "pragma solidity ^0.5.0;\r\npragma experimental ABIEncoderV2;\r\n\r\ncontract Admission {\r\n  uint public documentCount = 0;\r\n\r\n  struct Document {\r\n    uint docId;\r\n    string studentUid;\r\n    string docHash;\r\n    string docType; \r\n  }\r\n\r\n  mapping(uint => Document) public documents;\r\n  // mapping(uint => Document) public studentDocuments;\r\n  constructor() public {\r\n    createDocument(\"2018140036\", \"abc123\", \"aadhar card\");\r\n  }\r\n\r\n  function createDocument(string memory _studentUid, string memory _docHash, string memory _docType) public {\r\n    documentCount++;\r\n    documents[documentCount] = Document(documentCount, _studentUid, _docHash, _docType);\r\n    // emit TaskCreated(documentCount, _content, false);\r\n  }\r\n}\r\n\r\n\r\ncontract Exam {\r\n  uint public questionPaperCount = 0;\r\n  uint public answerPaperCount = 0;\r\n\r\n\r\n  struct QuestionPaper {\r\n    uint qpId;\r\n    string fid;\r\n    string testName;\r\n    string qpHash;\r\n    string branch;\r\n    string subject;\r\n  }\r\n\r\n  struct AnswerPaper {\r\n    uint apId;\r\n    string studentUid;\r\n    string testName;\r\n    string apHash;\r\n    string branch;\r\n    string subject;\r\n  }\r\n\r\n\r\n  mapping(uint => QuestionPaper) public questionpapers;\r\n  mapping(uint => AnswerPaper) public answerpapers;\r\n\r\n \r\n\r\n  function createQuestionPaper(string memory _fid, string memory _testName, string memory _qpHash, string memory _branch, string memory _subject) public {\r\n    questionPaperCount++;\r\n    questionpapers[questionPaperCount] = QuestionPaper(questionPaperCount, _fid, _testName, _qpHash, _branch,_subject);\r\n  }\r\n\r\n  \r\n  function createAnswerPaper(string memory _studentUid, string memory _testName, string memory _apHash, string memory _branch, string memory _subject) public {\r\n    answerPaperCount++;\r\n    answerpapers[answerPaperCount] = AnswerPaper(answerPaperCount, _studentUid, _testName, _apHash, _branch,_subject);\r\n  }\r\n}",
  "sourcePath": "D:\\Users\\tanvi\\Eighth Semester\\Major Project\\Educrypto Frontend\\contracts\\Educrypto.sol",
  "compiler": {
    "name": "solc",
    "version": "0.5.16+commit.9c3226ce.Emscripten.clang"
  },
  "schemaVersion": "3.4.4",
  "updatedAt": "2022-03-06T06:20:15.929Z",
  "devdoc": {
    "methods": {}
  },
  "userdoc": {
    "methods": {}
  }
}